:020000001C28BA
:10000800803120007F08F0000B1D0B280C281928D0
:100018000130A8070030A93D0030AA3D0030AB3DB3
:10002800B201B20A95010B1119287008FF000900E6
:10003800D82A2000C0009E284018232826282000FF
:100048000C14282820000C108C100C110030B6005D
:100058000030B5000030B4003C30B3002F08BA00BF
:100068002E08B9002D08B8002C08B70081314321AB
:10007800803120003308FC007C08C100A9280C103E
:10008800401847284A2820008C144C2820008C103F
:100098000C110030B6000030B5000030B4000A3052
:1000A800B3002F08F8002E08F7002D08F6002C08DA
:1000B800F5000030F4000030F3000030F2003C306E
:1000C800F1008131A521803174082000BA0073083D
:1000D800B9007208B8007108B70081314321803136
:1000E80020003308FC007C08C100A9280C108C10E3
:1000F80040187F28822820000C15842820000C1125
:100108000030F4000030F3000030F2000A30F10053
:100118002F08F8002E08F7002D08F6002C08F50027
:100128008131A52180317108FC007C082000C100C4
:10013800A928A9283008003A03192028013A0319E8
:100148004328033A03197A28A9284118AC28AF286C
:1001580020000E15B12820000E114108FC000130C6
:10016800FC36890BB4287C18BA28BD2820008E15C7
:10017800BF2820008E114108FC000230FC36890B94
:10018800C2287C18C828CB2820000E16CD282000AD
:100198000E124108FC000330FC36890BD0287C186D
:1001A800D628D92820008E16DB2820008E120800B9
:1001B800200027082604250424040319E428E52838
:1001C800F6280130C2000030C3000030C4000030FF
:1001D800C5004208A4024308A53B4408A63B4508BD
:1001E800A73B18292F082E042D042C040319FD28D9
:1001F800FE2818290130C2000030C3000030C400B6
:100208000030C5004208AC024308AD3B4408AE3B91
:100218004508AF3B0030A7000030A6000130A5001C
:100228003130A400182918290130C2004208B1074A
:100238000230310203182129222927290030803170
:100248001D208031422904302000310203182D2955
:100258002E293329013080311D2080314229013077
:100268002000C2004208B0073008033A031D3D29A8
:100278003E293F29B001B101422942290800003036
:100288002000BE000030BD000030BC000030BB00C4
:1002980036083504340433040319532954299B2997
:1002A800BF01BF0A63290130B335B40DB50DB60DD2
:1002B800890B58290130FB007B08BF076329B61F4B
:1002C800662967295729692969290130BB35BC0D79
:1002D800BD0DBE0D890B6A2936083A02031D7E2919
:1002E80035083902031D7E2934083802031D7E298A
:1002F80033083702031C812982298C293308B70265
:100308003408B83B3508B93B3608BA3B3B148C294E
:100318000130B636B50CB40CB30C890B8D290130FD
:10032800BF02031D9829992969299B299B293E0801
:10033800B6003D08B5003C08B4003B08B300A4294A
:10034800080074087304720471040319AC29AD29F8
:10035800EC29FA01FA0ABC290130F135F20DF30D46
:10036800F40D890BB1290130F9007908FA07BC2985
:10037800F41FBF29C029B029C229C22974087802EC
:10038800031DD02973087702031DD029720876024D
:10039800031DD02971087502031CD329D429DD292E
:1003A8007108F5027208F63B7308F73B7408F83BCE
:1003B800DD290130F436F30CF20CF10C890BDE293F
:1003C8000130FA02031DE929EA29C229EC29EC299E
:1003D8007808F4007708F3007608F2007508F10051
:1003E800F529080020003208013A031DFC29FD29DF
:1003F800052AB2018031DC208131823176228131B7
:10040800052A003020002B02031D142A00302A027E
:10041800031D142A01302902031D142A3230280230
:10042800031C172A182A242A0030AB000030AA001F
:100438000030A9000030A8008231E8228131242A46
:100448008231282281310800200023082204210457
:1004580020040319302A312A332A502A502A82319B
:10046800512282317208710403193B2A3C2A462A18
:1004780000302000A3000030A2000130A1002C3081
:10048800A000502A00302000A3000030A200003055
:10049800A1000030A000502A08000130F30000300D
:1004A800F40020008C19592A5A2A6B2A0030AF0010
:1004B8000030AE000030AD00B430AC000030A70012
:1004C8000030A6000130A5003130A4006E2AF301E7
:1004D800F4016E2A7408F201F2077308F101F107BA
:1004E800752A080020002308220421042004031D83
:1004F8007E2A7F2A812A912A912A0130F100003030
:10050800F2000030F3000030F4007108A002720815
:10051800A13B7308A23B7408A33B08008231BC22AC
:10052800823100302000AB000030AA000030A90062
:100538000030A8008231A8228231A22A8131F62116
:100548008231A22AA22A1C2800302000A3000030F1
:10055800A2000030A1000030A000B001B1010030BD
:10056800AF000030AE000030AD000030AC00080035
:100578008231CA2282318530210095002000950100
:100588008B160B178B1704309C00080023008C0176
:10059800083021008C0020008C0123008E012100EE
:1005A8008E0120008E010800203084000030850074
:1005B80013308231E22282312000922A64008001C5
:0A05C8000131890BE32A003408001A
:020000040001F9
:04000E0082CFFFDEC0
:00000001FF
