:020000002C28AA
:10000800803120007F08F0000B1D0B280C282928C0
:100018000130A8070030A93D0030AA3D0030AB3DB3
:100028000130A4070030A53D0030A63D0030A73DB3
:100038000130AC070030AD3D0030AE3D0030AF3D83
:10004800FC01FC0A95010B1129287008FF00090022
:10005800982A79280C148C100030B8000030B700AA
:100068000030B6000A30B5003308F8003208F7004F
:100078003108F6003008F5000030F4000030F300D5
:100088000030F2006430F1008131172180317408AA
:100098002000BC007308BB007208BA007108B900E0
:1000A8008031B520803120003508C2004208C300E5
:1000B80082280C108C140030F4000030F30000305B
:1000C800F2000A30F1003308F8003208F70031086E
:1000D800F6003008F50081311721803171082000C1
:1000E800C2004208C3008228822820003408003A4F
:1000F80003192E28013A03195D28822843188528F8
:10010800882820000E158A2820000E114308C200F6
:100118000130C236890B8D28421893289628200072
:100128008E15982820008E114308C2000230C2366E
:10013800890B9B284218A128A42820000E16A6285F
:1001480020000E124308C2000330C236890BA928CA
:100158004218AF28B22820008E16B42820008E122C
:10016800080000302000C0000030BF000030BE0092
:100178000030BD0038083704360435040319C52893
:10018800C6280D29C101C10AD5280130B535B60DDB
:10019800B70DB80D890BCA280130FB007B08C107D1
:1001A800D528B81FD828D928C928DB28DB2801304A
:1001B800BD35BE0DBF0DC00D890BDC2838083C02CB
:1001C800031DF02837083B02031DF02836083A02C1
:1001D800031DF02835083902031CF328F428FE28EB
:1001E8003508B9023608BA3B3708BB3B3808BC3B70
:1001F8003D14FE280130B836B70CB60CB50C890B87
:10020800FF280130C102031D0A290B29DB280D290B
:100218000D294008B8003F08B7003E08B6003D0861
:10022800B5001629080074087304720471040319D0
:100238001E291F295E29FA01FA0A2E290130F135F3
:10024800F20DF30DF40D890B23290130F90079081B
:10025800FA072E29F41F3129322922293429342971
:1002680074087802031D422973087702031D422986
:1002780072087602031D422971087502031C45297C
:1002880046294F297108F5027208F63B7308F73BB7
:100298007408F83B4F290130F436F30CF20CF10CDA
:1002A800890B50290130FA02031D5B295C29342986
:1002B8005E295E297808F4007708F3007608F200D2
:1002C8007508F100672908007C08013A031D6D29AB
:1002D8006E297329FC018231212281317329003072
:1002E80020002B02031D822900302A02031D8229C7
:1002F80000302902031D822904302802031C8529A5
:10030800862992290030AB000030AA000030A900ED
:100318000030A80082316B22813192290030200000
:100328002F02031DA12900302E02031DA12901302F
:100338002D02031DA12932302C02031CA429A52952
:10034800B1290030AF000030AE000030AD00003001
:10035800AC0082313D228131B1298131B521813111
:100368000800200023082204210420040319BD29C1
:10037800BE29C029DD29DD29823104228131720894
:1003880071040319C829C929D32900302000A30002
:100398000030A2000130A1002C30A000DD2900307F
:1003A8002000A3000030A2000030A1000030A0000F
:1003B800DD29080082317C22813100302000AB0029
:1003C8000030AA000030A9000030A8000030A700C3
:1003D8000030A6000030A5000030A4000030AF00B7
:1003E8000030AE000030AD000030AC008231582241
:1003F8008131FE29813168218131FE29FE292C288D
:100408000130F3000030F40020008C190C2A0D2A6A
:10041800162A0030B3000030B2000030B10064305A
:10042800B000192AF301F401192A7408F201F2073D
:100438007308F101F107202A08002000230822048C
:1004480021042004031D292A2A2A2C2A3C2A3C2A72
:100458000130F1000030F2000030F3000030F40009
:100468007108A0027208A13B7308A23B7408A33B61
:100478000800200033083204310430040319452AE7
:10048800462A572A0130F1000030F2000030F3000C
:100498000030F4007108B0027208B13B7308B23B37
:1004A8007408B33B572A080000302000A30000302E
:1004B800A2000030A1000030A000B4010030B30059
:1004C8000030B2000030B1000030B00008008031C8
:1004D8002D20823101302000C4004408B4073408BC
:1004E800023A031D782A792A7B2AB4017B2A08005C
:1004F80082318A22823185302100950020009501C1
:100508008B160B178B1704309C00080023008C01F6
:10051800083021008C0020008C0123008E0121006E
:100528008E0120008E010800FC012030840000307C
:10053800850015308231A32282312000DE29640033
:0A05480080010131890BA42A003460
:020000040001F9
:04000E0082CFFFDEC0
:00000001FF
