:020000001C28BA
:10000800803120007F08F0000B1D0B280C281928D0
:100018000130B5070030B63D0030B73D0030B83D7F
:10002800FC01FC0A95010B1119287008FF00090052
:10003800872A2000AE0079282E1823282628200099
:100048000C14282820000C108C100030A30000305D
:10005800A2000030A1000A30A0003C08F8003B08CC
:10006800F7003A08F6003908F5000030F4000030CF
:10007800F3000030F2006430F10081311621803144
:1000880074082000A7007308A6007208A50071086C
:10009800A4008031B420803120002008AD002D0854
:1000A800AF0081280C102E185A285D2820008C14C7
:1000B8005F2820008C100030F4000030F30000307E
:1000C800F2000A30F1003C08F8003B08F7003A0853
:1000D800F6003908F50081311621803171082000B9
:1000E800AD002D08AF00812881283D08003A03198A
:1000F8002028013A0319562881282F188428872890
:1001080020000E15892820000E112F08AD0001309F
:10011800AD36890B8C282D189228952820008E152D
:10012800972820008E112F08AD000230AD36890BBC
:100138009A282D18A028A32820000E16A5282000EC
:100148000E122F08AD000330AD36890BA8282D18E4
:10015800AE28B12820008E16B32820008E12080081
:1001680000302000AB000030AA000030A9000030A9
:10017800A80023082204210420040319C428C52840
:100188000C29AC01AC0AD4280130A035A10DA20D70
:10019800A30D890BC9280130FB007B08AC07D428C4
:1001A800A31FD728D828C828DA28DA280130A83584
:1001B800A90DAA0DAB0D890BDB2823082702031D07
:1001C800EF2822082602031DEF2821082502031D17
:1001D800EF2820082402031CF228F328FD28200811
:1001E800A4022108A53B2208A63B2308A73B281404
:1001F800FD280130A336A20CA10CA00C890BFE2807
:100208000130AC02031D09290A29DA280C290C2916
:100218002B08A3002A08A2002908A1002808A0008A
:1002280015290800740873047204710403191D2940
:100238001E295D29FA01FA0A2D290130F135F20D3E
:10024800F30DF40D890B22290130F9007908FA071A
:100258002D29F41F302931292129332933297408FC
:100268007802031D412973087702031D412972088A
:100278007602031D412971087502031C442945298A
:100288004E297108F5027208F63B7308F73B7408AB
:10029800F83B4E290130F436F30CF20CF10C890BC3
:1002A8004F290130FA02031D5A295B2933295D2998
:1002B8005D297808F4007708F3007608F2007508DD
:1002C800F100662908007C08013A031D6C296D2994
:1002D8007529FC0181319821813182310A228131CD
:1002E8007529003020003802031D842900303702A8
:1002F800031D842901303602031D8429323035025A
:10030800031C8729882994290030B8000030B700D9
:100318000030B6000030B5008231262281319429A0
:100328008131C4218131080001302000B00030083B
:10033800BE0702303E020318A229A329A8290030CB
:1003480080311D208131C329043020003E0203186A
:10035800AE29AF29B429013080311D208131C3294C
:1003680001302000B0003008BD073D08023A031DE7
:10037800BE29BF29C029BD01BE01C329C329080060
:10038800200034083304320431040319CC29CD2960
:10039800CF29EC29EC298131ED21813172087104D2
:1003A8000319D729D829E22900302000B4000030E9
:1003B800B3000130B2002C30B100EC29003020002D
:1003C800B4000030B3000030B2000030B100EC29B6
:1003D80008000130F3000030F40020008C19F529E2
:1003E800F629FF290030BC000030BB000030BA00FD
:1003F8006430B900022AF301F401022A7408F201F8
:10040800F2077308F101F107092A080020003408EF
:10041800330432043104031D122A132A152A252A0B
:10042800252A0130F1000030F2000030F3000030DE
:10043800F4007108B1027208B23B7308B33B740848
:10044800B43B080020003C083B043A043904031973
:100458002E2A2F2A402A0130F1000030F200003005
:10046800F3000030F4007108B9027208BA3B73084F
:10047800BB3B7408BC3B402A080082316B228231A6
:1004880000302000B8000030B7000030B60000305F
:10049800B500823157228231512A81316721823158
:1004A800512A512A1C2800302000B4000030B30023
:1004B8000030B2000030B100BD01BE010030BC0008
:1004C8000030BB000030BA000030B90008008231AB
:1004D80079228231853021009500200095018B1604
:1004E8000B178B1704309C00080023008C01083080
:1004F80021008C0020008C0123008E0121008E0138
:1005080020008E010800FC01313084000030850095
:100518000E308231922282312000412A640080010B
:080528000131890B932A003414
:020000040001F9
:04000E0082CFFFDEC0
:00000001FF
