:020000002428B2
:10000800803120007F08FA000B1D0B280C282128BE
:100018000130F0070030F13D0030F23D0030F33D93
:100028000130F4070030F53D0030F63D0030F73D73
:10003800F801F80A95010B1121287A08FF00090038
:10004800DE287808013A031D2A282B282D28F801D4
:100058002D2800307302031D3B2800307202031D57
:100068003B2800307102031D3B281F307002031C1F
:100078003E283F2887280030F3000030F200003087
:10008800F1000030F000F908031D4B284C285128D6
:100098000A30FB007B08F90054280130F902542883
:1000A800791857285A2820000E155C2820000E11B0
:1000B8007908FB000130FB36890B5F287B1865281F
:1000C800682820008E156A2820008E117908FB0008
:1000D8000230FB36890B6D287B18732876282000A0
:1000E8000E16782820000E127908FB000330FB3624
:1000F800890B7B287B188128842820008E16862867
:1001080020008E12872800307702031D95280030C2
:100118007602031D952801307502031D952832309B
:100128007402031C98289928A5280030F70000308D
:10013800F6000030F5000030F400023020008C0694
:10014800A52808008031C22080310030F30000303B
:10015800F2000030F1000030F0000030F70000300D
:10016800F6000030F5000030F40020000C14BC2824
:10017800803125208031BC28BC2824288031D0201B
:100188008031853021009500200095018B160B17D2
:100198008B1704309C00080023008C0108302100D4
:1001A8008C0020008C0123008E0121008E0120008C
:1001B8008E010800F001F101F201F301F401F501EB
:0C01C800F601F701F801F9012000A6285B
:020000040001F9
:04000E0082CFFFDEC0
:00000001FF
