:020000001428C2
:10000800803120007F08F0000B1D0B280C281128D8
:10001800C101C10A95010B1111287008FF000900E0
:10002800A82A2000AD0096282D181B281E2820007D
:100038000C14202820000C108C100C110030A30088
:100048000030A2000030A1003C30A0003E08A7000C
:100058003D08A6003C08A5003B08A40081313B21CF
:10006800803120002008FC007C08AE00A1280C107C
:100078002D183F28422820008C14442820008C107A
:100088000C110030A3000030A2000030A1000A309B
:10009800A0003E08F8003D08F7003C08F6003B08C1
:1000A800F5000030F4000030F3000030F2003C307E
:1000B800F10081319D21803174082000A700730868
:1000C800A6007208A5007108A40081313B21803187
:1000D80020002008FC007C08AE00A1280C108C1021
:1000E8002D1877287A2820000C157C2820000C1160
:1000F8000030F4000030F3000030F2000A30F10064
:100108003E08F8003D08F7003C08F6003B08F500FB
:1001180081319D2180317108FC007C082000AE00EF
:10012800A128A1283F08003A03191828013A031901
:100138003B28033A03197228A1282E18A428A728B7
:1001480020000E15A92820000E112E08FC000130F1
:10015800FC36890BAC287C18B228B52820008E15EF
:10016800B72820008E112E08FC000230FC36890BBF
:10017800BA287C18C028C32820000E16C5282000DD
:100188000E122E08FC000330FC36890BC8287C1898
:10019800CE28D12820008E16D32820008E120800E1
:1001A80020003A083904380437040319DC28DD280C
:1001B800EE280130AF000030B0000030B100003050
:1001C800B2002F08B7023008B83B3108B93B3208F3
:1001D800BA3B10293E083D043C043B040319F528AA
:1001E800F62810290130AF000030B0000030B1000F
:1001F8000030B2002F08BB023008BC3B3108BD3BC1
:100208003208BE3B0030BA000030B9000430B800F4
:10021800C530B700102910290130AF002F08C007DA
:1002280002304002031819291A291F290030803189
:10023800152080313A29063020004002031825296C
:1002480026292B2901308031152080313A290130A7
:100258002000AF002F08BF073F08033A031D3529C8
:1002680036293729BF01C0013A293A290800003048
:100278002000AB000030AA000030A9000030A80020
:10028800230822042104200403194B294C2993290B
:10029800AC01AC0A5B290130A035A10DA20DA30D5C
:1002A800890B50290130FB007B08AC075B29A31F91
:1002B8005E295F294F29612961290130A835A90DD7
:1002C800AA0DAB0D890B622923082702031D762985
:1002D80022082602031D762921082502031D7629F6
:1002E80020082402031C79297A2984292008A402D9
:1002F8002108A53B2208A63B2308A73B28148429EC
:100308000130A336A20CA10CA00C890B8529013061
:10031800AC02031D902991296129932993292B085F
:10032800A3002A08A2002908A1002808A0009C29E7
:10033800080074087304720471040319A429A52918
:10034800E429FA01FA0AB4290130F135F20DF30D66
:10035800F40D890BA9290130F9007908FA07B429A5
:10036800F41FB729B829A829BA29BA297408780224
:10037800031DC82973087702031DC829720876026D
:10038800031DC82971087502031CCB29CC29D5295E
:100398007108F5027208F63B7308F73B7408F83BDE
:1003A800D5290130F436F30CF20CF10C890BD6295F
:1003B8000130FA02031DE129E229BA29E429E429D6
:1003C8007808F4007708F3007608F2007508F10061
:1003D800ED290800200036083504340433040319D5
:1003E800F629F729F929162A162A82311722813186
:1003F800720871040319012A022A0C2A003020000D
:10040800B6000030B5000230B4005830B300162AE8
:1004180000302000B6000030B5000030B4000030D5
:10042800B300162A08000130F3000030F400200061
:100438008C191F2A202A312A0030BE000030BD0046
:100448000030BC00B430BB000030BA000030B90046
:100458000430B800C530B700342AF301F401342A57
:100468007408F201F2077308F101F1073B2A08004A
:1004780020003608350434043304031D442A452A71
:10048800472A572A572A0130F1000030F20000307D
:10049800F3000030F4007108B3027208B43B73082B
:1004A800B53B7408B63B080000302000B6000030A9
:1004B800B5000030B4000030B300BF01C001003007
:1004C800BE000030BD000030BC000030BB0008009A
:1004D80020004108013A031D722A732A7B2AC101B0
:1004E8008031D420823182313C2282317B2A813191
:1004F800EE218231080082318D2282318330210041
:100508009500200095018B160B178B1704309C0063
:10051800080023008C01083021008C0020008C0189
:1005280023008E0121008E0120008E0108008231F7
:100538007F228231823158228231A22A82316C2272
:100548008231A22AA22A1428333084000030850080
:100558000F308231B222823120009B2A6400800150
:080568000131890BB32A0034B4
:020000040001F9
:04000E0082CFFFDEC0
:00000001FF
